{
  "contractName": "GasConsumptionArrays",
  "abi": [
    {
      "inputs": [
        {
          "internalType": "uint256",
          "name": "",
          "type": "uint256"
        }
      ],
      "name": "entitiesList",
      "outputs": [
        {
          "internalType": "uint256",
          "name": "data",
          "type": "uint256"
        },
        {
          "internalType": "address",
          "name": "_address",
          "type": "address"
        }
      ],
      "stateMutability": "view",
      "type": "function",
      "constant": true
    },
    {
      "inputs": [
        {
          "internalType": "uint256",
          "name": "_data",
          "type": "uint256"
        }
      ],
      "name": "addEntity",
      "outputs": [
        {
          "internalType": "uint256",
          "name": "rowNumber",
          "type": "uint256"
        }
      ],
      "stateMutability": "nonpayable",
      "type": "function"
    },
    {
      "inputs": [
        {
          "internalType": "uint256",
          "name": "data",
          "type": "uint256"
        }
      ],
      "name": "udpateEntity",
      "outputs": [
        {
          "internalType": "bool",
          "name": "success",
          "type": "bool"
        }
      ],
      "stateMutability": "nonpayable",
      "type": "function"
    },
    {
      "inputs": [],
      "name": "getListCount",
      "outputs": [
        {
          "internalType": "uint256",
          "name": "totalCount",
          "type": "uint256"
        }
      ],
      "stateMutability": "view",
      "type": "function",
      "constant": true
    },
    {
      "inputs": [],
      "name": "getAllEntites",
      "outputs": [
        {
          "components": [
            {
              "internalType": "uint256",
              "name": "data",
              "type": "uint256"
            },
            {
              "internalType": "address",
              "name": "_address",
              "type": "address"
            }
          ],
          "internalType": "struct GasConsumptionArrays.Entity[]",
          "name": "",
          "type": "tuple[]"
        }
      ],
      "stateMutability": "view",
      "type": "function",
      "constant": true
    },
    {
      "inputs": [
        {
          "internalType": "uint256",
          "name": "rowNumber",
          "type": "uint256"
        }
      ],
      "name": "getEntity",
      "outputs": [
        {
          "internalType": "address",
          "name": "",
          "type": "address"
        },
        {
          "internalType": "uint256",
          "name": "",
          "type": "uint256"
        }
      ],
      "stateMutability": "view",
      "type": "function",
      "constant": true
    },
    {
      "inputs": [
        {
          "internalType": "uint256",
          "name": "index",
          "type": "uint256"
        }
      ],
      "name": "returnEntityWithIndex",
      "outputs": [
        {
          "internalType": "address",
          "name": "",
          "type": "address"
        },
        {
          "internalType": "uint256",
          "name": "",
          "type": "uint256"
        }
      ],
      "stateMutability": "view",
      "type": "function",
      "constant": true
    }
  ],
  "bytecode": "0x608060405234801561001057600080fd5b50610a59806100206000396000f3fe608060405234801561001057600080fd5b506004361061007d5760003560e01c80634d98cd1c1161005b5780634d98cd1c146101015780638cf8525b1461011f578063b012f4a114610150578063b3a27842146101805761007d565b80632ce37b101461008257806345c45a8a146100a0578063472fa6dc146100d1575b600080fd5b61008a6101b1565b604051610097919061082d565b60405180910390f35b6100ba60048036038101906100b59190610667565b6101bd565b6040516100c8929190610848565b60405180910390f35b6100eb60048036038101906100e69190610667565b610211565b6040516100f8919061082d565b60405180910390f35b6101096103b7565b60405161011691906107d0565b60405180910390f35b61013960048036038101906101349190610667565b610476565b6040516101479291906107a7565b60405180910390f35b61016a60048036038101906101659190610667565b6104ee565b60405161017791906107f2565b60405180910390f35b61019a60048036038101906101959190610667565b6105da565b6040516101a89291906107a7565b60405180910390f35b60008080549050905090565b600081815481106101cd57600080fd5b90600052602060002090600202016000915090508060000154908060010160009054906101000a900473ffffffffffffffffffffffffffffffffffffffff16905082565b600080600090505b6000805490508110156102f4573373ffffffffffffffffffffffffffffffffffffffff1660008281548110610251576102506109af565b5b906000526020600020906002020160010160009054906101000a900473ffffffffffffffffffffffffffffffffffffffff1673ffffffffffffffffffffffffffffffffffffffff1614156102e15760006102e0576040517f08c379a00000000000000000000000000000000000000000000000000000000081526004016102d79061080d565b60405180910390fd5b5b80806102ec90610937565b915050610219565b50600060405180604001604052808481526020013373ffffffffffffffffffffffffffffffffffffffff1681525090806001815401808255809150506001900390600052602060002090600202016000909190919091506000820151816000015560208201518160010160006101000a81548173ffffffffffffffffffffffffffffffffffffffff021916908373ffffffffffffffffffffffffffffffffffffffff160217905550505060016000805490506103b091906108bb565b9050919050565b60606000805480602002602001604051908101604052809291908181526020016000905b8282101561046d5783829060005260206000209060020201604051806040016040529081600082015481526020016001820160009054906101000a900473ffffffffffffffffffffffffffffffffffffffff1673ffffffffffffffffffffffffffffffffffffffff1673ffffffffffffffffffffffffffffffffffffffff1681525050815260200190600101906103db565b50505050905090565b6000806000838154811061048d5761048c6109af565b5b906000526020600020906002020160010160009054906101000a900473ffffffffffffffffffffffffffffffffffffffff16600084815481106104d3576104d26109af565b5b90600052602060002090600202016000015491509150915091565b600080600090505b600160008054905061050891906108bb565b8110156105cf573373ffffffffffffffffffffffffffffffffffffffff166000828154811061053a576105396109af565b5b906000526020600020906002020160010160009054906101000a900473ffffffffffffffffffffffffffffffffffffffff1673ffffffffffffffffffffffffffffffffffffffff1614156105bc57826000828154811061059d5761059c6109af565b5b90600052602060002090600202016000018190555060019150506105d5565b80806105c790610937565b9150506104f6565b50600090505b919050565b600080600083815481106105f1576105f06109af565b5b906000526020600020906002020160010160009054906101000a900473ffffffffffffffffffffffffffffffffffffffff1660008481548110610637576106366109af565b5b90600052602060002090600202016000015491509150915091565b60008135905061066181610a0c565b92915050565b60006020828403121561067d5761067c6109de565b5b600061068b84828501610652565b91505092915050565b60006106a0838361075a565b60408301905092915050565b6106b5816108ef565b82525050565b6106c4816108ef565b82525050565b60006106d582610881565b6106df8185610899565b93506106ea83610871565b8060005b8381101561071b5781516107028882610694565b975061070d8361088c565b9250506001810190506106ee565b5085935050505092915050565b61073181610901565b82525050565b6000610744601a836108aa565b915061074f826109e3565b602082019050919050565b6040820160008201516107706000850182610789565b50602082015161078360208501826106ac565b50505050565b6107928161092d565b82525050565b6107a18161092d565b82525050565b60006040820190506107bc60008301856106bb565b6107c96020830184610798565b9392505050565b600060208201905081810360008301526107ea81846106ca565b905092915050565b60006020820190506108076000830184610728565b92915050565b6000602082019050818103600083015261082681610737565b9050919050565b60006020820190506108426000830184610798565b92915050565b600060408201905061085d6000830185610798565b61086a60208301846106bb565b9392505050565b6000819050602082019050919050565b600081519050919050565b6000602082019050919050565b600082825260208201905092915050565b600082825260208201905092915050565b60006108c68261092d565b91506108d18361092d565b9250828210156108e4576108e3610980565b5b828203905092915050565b60006108fa8261090d565b9050919050565b60008115159050919050565b600073ffffffffffffffffffffffffffffffffffffffff82169050919050565b6000819050919050565b60006109428261092d565b91507fffffffffffffffffffffffffffffffffffffffffffffffffffffffffffffffff82141561097557610974610980565b5b600182019050919050565b7f4e487b7100000000000000000000000000000000000000000000000000000000600052601160045260246000fd5b7f4e487b7100000000000000000000000000000000000000000000000000000000600052603260045260246000fd5b600080fd5b7f5468697320656e7469747920616c726561647920657869737473000000000000600082015250565b610a158161092d565b8114610a2057600080fd5b5056fea264697066735822122058a58cdd7797e9154ad294a948a59a3fcfc73018f4ed7b8706c8eed34085d79a64736f6c63430008060033",
  "immutableReferences": {},
  "source": "// SPDX-License-Identifier: MIT\npragma solidity 0.8.6;\n\ncontract GasConsumptionArrays {\n    struct Entity {\n        uint256 data;\n        address _address;\n    }\n\n    Entity[] public entitiesList;\n\n    //Option 1 ADD\n    // function addEntity(uint data) public returns (uint rowNumber) {\n    //     Entity memory newEntity;\n    //     newEntity.data = data;\n    //     newEntity._address = msg.sender;\n    //     entitiesList.push(newEntity);\n    //     return entitiesList.length - 1;\n    // }\n\n    //Option 2 ADD\n    // function addEntity(uint data, address _address) public returns (uint rowNumber) {\n    //     Entity memory newEntity;\n    //     newEntity._address = _address;\n    //     newEntity.data = data;\n    //     entitiesList.push(newEntity);\n    //     return entitiesList.length - 1;\n    // }\n\n    //Option 3 ADD- shortcut\n    // function addEntity(uint _data, address user_address) public returns (uint rowNumber) {\n    //     entitiesList.push(Entity(_data, user_address));\n    //     return entitiesList.length - 1;\n    // }\n\n    //Option 4 ADD- Using for Loop\n    // function addEntity(uint data) public returns (uint rowNumber) {\n    //     for (uint i=0; i<entitiesList.length; i++) {\n    //         if (entitiesList[i]._address == msg.sender) {\n    //             require(false, \"This entity already exists\");\n    //         }\n    //     }\n    //     Entity memory newEntity;\n    //     newEntity.data = data;\n    //     newEntity._address = msg.sender;\n    //     entitiesList.push(newEntity);\n    //     return entitiesList.length - 1;\n    // }\n\n    function addEntity(uint256 _data) public returns (uint256 rowNumber) {\n        for (uint256 i = 0; i < entitiesList.length; i++) {\n            if (entitiesList[i]._address == msg.sender) {\n                require(false, \"This entity already exists\");\n            }\n        }\n        entitiesList.push(Entity(_data, msg.sender));\n        return entitiesList.length - 1;\n    }\n\n    // Option 1 UPDATE (using require)\n    // function updateEntity(uint data, uint rowNumber) public returns (bool success) {\n    //     require(entitiesList[rowNumber]._address == msg.sender, \"You are not authorized to access this\");\n    //     entitiesList[rowNumber].data = data;\n    //     return true;\n    // }\n\n    // Option 2 UPDATE (using require)\n    // function updateEntity(uint data, uint index) public returns (bool success) {\n    //     require(entitiesList[index]._address == msg.sender, \"You are not allowed to access this\");\n    //     entitiesList[index].data = data;\n    //     return true;\n    // }\n\n    // Option 3 UPATE (using for Loop)\n    function udpateEntity(uint256 data) public returns (bool success) {\n        for (uint256 i = 0; i < entitiesList.length - 1; i++) {\n            if (entitiesList[i]._address == msg.sender) {\n                entitiesList[i].data = data;\n                return true;\n            }\n        }\n        return false;\n    }\n\n    function getListCount() public view returns (uint256 totalCount) {\n        return entitiesList.length;\n    }\n\n    function getAllEntites() public view returns (Entity[] memory) {\n        return entitiesList;\n    }\n\n    function getEntity(uint256 rowNumber)\n        public\n        view\n        returns (address, uint256)\n    {\n        return (entitiesList[rowNumber]._address, entitiesList[rowNumber].data);\n    }\n\n    function returnEntityWithIndex(uint256 index)\n        public\n        view\n        returns (address, uint256)\n    {\n        return (entitiesList[index]._address, entitiesList[index].data);\n    }\n}\n",
  "sourcePath": "/Users/josephdeangeloi/Documents/Github/GasComparison-StorageDesigns/contracts/GasConsumptionArrays.sol",
  "compiler": {
    "name": "solc",
    "version": "0.8.6+commit.11564f7e.Emscripten.clang"
  },
  "schemaVersion": "3.4.3",
  "updatedAt": "2022-01-14T13:18:16.392Z",
  "networkType": "ethereum",
  "devdoc": {
    "kind": "dev",
    "methods": {},
    "version": 1
  },
  "userdoc": {
    "kind": "user",
    "methods": {},
    "version": 1
  }
}