{
  "contractName": "GasConsumptionMappings",
  "abi": [
    {
      "inputs": [
        {
          "internalType": "address",
          "name": "",
          "type": "address"
        }
      ],
      "name": "entityMapping",
      "outputs": [
        {
          "internalType": "uint256",
          "name": "data",
          "type": "uint256"
        },
        {
          "internalType": "address",
          "name": "_address",
          "type": "address"
        }
      ],
      "stateMutability": "view",
      "type": "function",
      "constant": true
    },
    {
      "inputs": [
        {
          "internalType": "uint256",
          "name": "data",
          "type": "uint256"
        }
      ],
      "name": "addEnitty",
      "outputs": [
        {
          "internalType": "bool",
          "name": "success",
          "type": "bool"
        }
      ],
      "stateMutability": "nonpayable",
      "type": "function"
    },
    {
      "inputs": [
        {
          "internalType": "uint256",
          "name": "data",
          "type": "uint256"
        },
        {
          "internalType": "address",
          "name": "_address",
          "type": "address"
        }
      ],
      "name": "updateEntity",
      "outputs": [],
      "stateMutability": "nonpayable",
      "type": "function"
    },
    {
      "inputs": [
        {
          "internalType": "address",
          "name": "_address",
          "type": "address"
        }
      ],
      "name": "getEntityMapping",
      "outputs": [
        {
          "internalType": "uint256",
          "name": "",
          "type": "uint256"
        },
        {
          "internalType": "address",
          "name": "",
          "type": "address"
        }
      ],
      "stateMutability": "view",
      "type": "function",
      "constant": true
    }
  ],
  "bytecode": "0x608060405234801561001057600080fd5b50610721806100206000396000f3fe608060405234801561001057600080fd5b506004361061004b5760003560e01c8062f1b4aa146100505780630ad32de01461006c578063104b3e1f1461009c57806369da6688146100cd575b600080fd5b61006a600480360381019061006591906104b0565b6100fe565b005b61008660048036038101906100819190610483565b610217565b6040516100939190610563565b60405180910390f35b6100b660048036038101906100b19190610456565b610338565b6040516100c49291906105be565b60405180910390f35b6100e760048036038101906100e29190610456565b6103e8565b6040516100f59291906105be565b60405180910390f35b3373ffffffffffffffffffffffffffffffffffffffff166000808373ffffffffffffffffffffffffffffffffffffffff1673ffffffffffffffffffffffffffffffffffffffff16815260200190815260200160002060010160009054906101000a900473ffffffffffffffffffffffffffffffffffffffff1673ffffffffffffffffffffffffffffffffffffffff16146101cd576040517f08c379a00000000000000000000000000000000000000000000000000000000081526004016101c49061057e565b60405180910390fd5b816000803373ffffffffffffffffffffffffffffffffffffffff1673ffffffffffffffffffffffffffffffffffffffff168152602001908152602001600020600001819055505050565b60003373ffffffffffffffffffffffffffffffffffffffff166000803373ffffffffffffffffffffffffffffffffffffffff1673ffffffffffffffffffffffffffffffffffffffff16815260200190815260200160002060010160009054906101000a900473ffffffffffffffffffffffffffffffffffffffff1673ffffffffffffffffffffffffffffffffffffffff1614156102e9576040517f08c379a00000000000000000000000000000000000000000000000000000000081526004016102e09061059e565b60405180910390fd5b816000803373ffffffffffffffffffffffffffffffffffffffff1673ffffffffffffffffffffffffffffffffffffffff1681526020019081526020016000206000018190555060019050919050565b6000806000808473ffffffffffffffffffffffffffffffffffffffff1673ffffffffffffffffffffffffffffffffffffffff168152602001908152602001600020600001546000808573ffffffffffffffffffffffffffffffffffffffff1673ffffffffffffffffffffffffffffffffffffffff16815260200190815260200160002060010160009054906101000a900473ffffffffffffffffffffffffffffffffffffffff1691509150915091565b60006020528060005260406000206000915090508060000154908060010160009054906101000a900473ffffffffffffffffffffffffffffffffffffffff16905082565b60008135905061043b816106bd565b92915050565b600081359050610450816106d4565b92915050565b60006020828403121561046c5761046b610640565b5b600061047a8482850161042c565b91505092915050565b60006020828403121561049957610498610640565b5b60006104a784828501610441565b91505092915050565b600080604083850312156104c7576104c6610640565b5b60006104d585828601610441565b92505060206104e68582860161042c565b9150509250929050565b6104f9816105f8565b82525050565b6105088161060a565b82525050565b600061051b6025836105e7565b915061052682610645565b604082019050919050565b600061053e601c836105e7565b915061054982610694565b602082019050919050565b61055d81610636565b82525050565b600060208201905061057860008301846104ff565b92915050565b600060208201905081810360008301526105978161050e565b9050919050565b600060208201905081810360008301526105b781610531565b9050919050565b60006040820190506105d36000830185610554565b6105e060208301846104f0565b9392505050565b600082825260208201905092915050565b600061060382610616565b9050919050565b60008115159050919050565b600073ffffffffffffffffffffffffffffffffffffffff82169050919050565b6000819050919050565b600080fd5b7f596f7520617265206e6f7420617574686f72697a656420746f2061636365737360008201527f2074686973000000000000000000000000000000000000000000000000000000602082015250565b7f54686973206164647265737320616c7265616479206173206461746100000000600082015250565b6106c6816105f8565b81146106d157600080fd5b50565b6106dd81610636565b81146106e857600080fd5b5056fea2646970667358221220a464ac86e8f36d77afd4df787bfcf7143185dfe57789369b7c46b475a8e0933764736f6c63430008060033",
  "immutableReferences": {},
  "source": "// SPDX-License-Identifier: MIT\npragma solidity 0.8.6;\n\ncontract GasConsumptionMappings {\n    struct Entity {\n        uint256 data;\n        address _address;\n    }\n\n    mapping(address => Entity) public entityMapping;\n\n    // ADD Option 1 Mapping- use msg.sender\n    // function addEntity(uint data, address _address) public {\n    //     entityMapping[msg.sender]._address = _address;\n    //     entityMapping[msg.sender].data = data;\n    // }\n\n    // //ADD Option 2- shortcut assignment\n    // function addEntity(uint _data, address user_address) public {\n    //     entityMapping[msg.sender] = Entity(_data, user_address);\n    // }\n\n    // ADD Option 3 use _address instead of msg.sender\n    // function addEntity(uint data, address _address) public {\n    //      entityMapping[_address]._address = _address;\n    //      entityMapping[_address].data = data;\n    // }\n\n    // Add Option 4 - Use require to make sure msg.sender != to address so we don't overwrite data! Return bool though not necessary.\n    function addEnitty(uint256 data) public returns (bool success) {\n        require(\n            entityMapping[msg.sender]._address != msg.sender,\n            \"This address already as data\"\n        );\n        entityMapping[msg.sender].data = data;\n        return true;\n    }\n\n    // UPDATE OPTION 1- use a require to make sure you update right entry\n    function updateEntity(uint256 data, address _address) public {\n        require(\n            entityMapping[_address]._address == msg.sender,\n            \"You are not authorized to access this\"\n        );\n        entityMapping[msg.sender].data = data;\n    }\n\n    // GET OPTION 1 - get only for msg.sender\n    // function getEntityMapping () public view returns (uint, address) {\n    //     return (entityMapping[msg.sender].data, entityMapping[msg.sender]._address);\n    // }\n\n    // GET OPTION 2 - get for any address\n    function getEntityMapping(address _address)\n        public\n        view\n        returns (uint256, address)\n    {\n        return (entityMapping[_address].data, entityMapping[_address]._address);\n    }\n}\n",
  "sourcePath": "/Users/josephdeangeloi/Documents/Github/GasComparison-StorageDesigns/contracts/GasConsumptionMappings.sol",
  "compiler": {
    "name": "solc",
    "version": "0.8.6+commit.11564f7e.Emscripten.clang"
  },
  "schemaVersion": "3.4.3",
  "updatedAt": "2022-01-14T13:18:16.397Z",
  "networkType": "ethereum",
  "devdoc": {
    "kind": "dev",
    "methods": {},
    "version": 1
  },
  "userdoc": {
    "kind": "user",
    "methods": {},
    "version": 1
  }
}